{
  "_format": "hh-sol-artifact-1",
  "contractName": "Lottery",
  "sourceName": "contracts/Lottery.sol",
  "abi": [
    {
      "inputs": [
        {
          "internalType": "uint256",
          "name": "_initialLimit",
          "type": "uint256"
        }
      ],
      "stateMutability": "nonpayable",
      "type": "constructor"
    },
    {
      "anonymous": false,
      "inputs": [
        {
          "indexed": false,
          "internalType": "address",
          "name": "_punter",
          "type": "address"
        },
        {
          "indexed": false,
          "internalType": "uint256",
          "name": "_amount",
          "type": "uint256"
        },
        {
          "indexed": false,
          "internalType": "uint256",
          "name": "_percentBet",
          "type": "uint256"
        }
      ],
      "name": "BetReceived",
      "type": "event"
    },
    {
      "anonymous": false,
      "inputs": [
        {
          "indexed": false,
          "internalType": "uint256",
          "name": "_newLimit",
          "type": "uint256"
        }
      ],
      "name": "LimitChange",
      "type": "event"
    },
    {
      "anonymous": false,
      "inputs": [
        {
          "indexed": true,
          "internalType": "address",
          "name": "previousOwner",
          "type": "address"
        },
        {
          "indexed": true,
          "internalType": "address",
          "name": "newOwner",
          "type": "address"
        }
      ],
      "name": "OwnershipTransferred",
      "type": "event"
    },
    {
      "anonymous": false,
      "inputs": [
        {
          "indexed": false,
          "internalType": "address",
          "name": "_winner",
          "type": "address"
        },
        {
          "indexed": false,
          "internalType": "uint256",
          "name": "_amountWon",
          "type": "uint256"
        },
        {
          "indexed": false,
          "internalType": "uint256",
          "name": "_lotteryNo",
          "type": "uint256"
        }
      ],
      "name": "RoundWinner",
      "type": "event"
    },
    {
      "inputs": [
        {
          "internalType": "uint256",
          "name": "",
          "type": "uint256"
        },
        {
          "internalType": "uint256",
          "name": "",
          "type": "uint256"
        }
      ],
      "name": "bookKeeper",
      "outputs": [
        {
          "internalType": "address",
          "name": "punter",
          "type": "address"
        },
        {
          "internalType": "uint256",
          "name": "amount",
          "type": "uint256"
        },
        {
          "internalType": "uint256",
          "name": "winNo",
          "type": "uint256"
        }
      ],
      "stateMutability": "view",
      "type": "function"
    },
    {
      "inputs": [
        {
          "internalType": "uint256",
          "name": "_newLimit",
          "type": "uint256"
        }
      ],
      "name": "changeLimit",
      "outputs": [],
      "stateMutability": "nonpayable",
      "type": "function"
    },
    {
      "inputs": [],
      "name": "getBalance",
      "outputs": [
        {
          "internalType": "uint256",
          "name": "",
          "type": "uint256"
        }
      ],
      "stateMutability": "view",
      "type": "function"
    },
    {
      "inputs": [],
      "name": "getLimit",
      "outputs": [
        {
          "internalType": "uint256",
          "name": "",
          "type": "uint256"
        }
      ],
      "stateMutability": "view",
      "type": "function"
    },
    {
      "inputs": [],
      "name": "getLotBalance",
      "outputs": [
        {
          "internalType": "uint256",
          "name": "",
          "type": "uint256"
        }
      ],
      "stateMutability": "view",
      "type": "function"
    },
    {
      "inputs": [],
      "name": "getOwner",
      "outputs": [
        {
          "internalType": "address",
          "name": "",
          "type": "address"
        }
      ],
      "stateMutability": "view",
      "type": "function"
    },
    {
      "inputs": [],
      "name": "getPunters",
      "outputs": [
        {
          "components": [
            {
              "internalType": "address",
              "name": "punter",
              "type": "address"
            },
            {
              "internalType": "uint256",
              "name": "amount",
              "type": "uint256"
            },
            {
              "internalType": "uint256",
              "name": "winNo",
              "type": "uint256"
            }
          ],
          "internalType": "struct Lottery.Bet[]",
          "name": "",
          "type": "tuple[]"
        }
      ],
      "stateMutability": "view",
      "type": "function"
    },
    {
      "inputs": [],
      "name": "lotteryBet",
      "outputs": [],
      "stateMutability": "payable",
      "type": "function"
    },
    {
      "inputs": [],
      "name": "owner",
      "outputs": [
        {
          "internalType": "address",
          "name": "",
          "type": "address"
        }
      ],
      "stateMutability": "view",
      "type": "function"
    },
    {
      "inputs": [],
      "name": "renounceOwnership",
      "outputs": [],
      "stateMutability": "nonpayable",
      "type": "function"
    },
    {
      "inputs": [
        {
          "internalType": "address",
          "name": "newOwner",
          "type": "address"
        }
      ],
      "name": "transferOwnership",
      "outputs": [],
      "stateMutability": "nonpayable",
      "type": "function"
    }
  ],
  "bytecode": "0x608060405260006002553480156200001657600080fd5b5060405162001a3038038062001a3083398181016040528101906200003c9190620001ba565b6200005c62000050620000ae60201b60201c565b620000b660201b60201c565b8060036000018190555033600160006101000a81548173ffffffffffffffffffffffffffffffffffffffff021916908373ffffffffffffffffffffffffffffffffffffffff16021790555050620001ec565b600033905090565b60008060009054906101000a900473ffffffffffffffffffffffffffffffffffffffff169050816000806101000a81548173ffffffffffffffffffffffffffffffffffffffff021916908373ffffffffffffffffffffffffffffffffffffffff1602179055508173ffffffffffffffffffffffffffffffffffffffff168173ffffffffffffffffffffffffffffffffffffffff167f8be0079c531659141344cd1fd0a4f28419497f9722a3daafe3b4186f6b6457e060405160405180910390a35050565b600080fd5b6000819050919050565b62000194816200017f565b8114620001a057600080fd5b50565b600081519050620001b48162000189565b92915050565b600060208284031215620001d357620001d26200017a565b5b6000620001e384828501620001a3565b91505092915050565b61183480620001fc6000396000f3fe60806040526004361061009c5760003560e01c8063893d20e811610064578063893d20e8146101555780638da5cb5b146101805780638eee50d5146101ab578063b295a00e146101d6578063c465809d14610201578063f2fde38b1461022c5761009c565b806305257387146100a157806312065fe0146100e05780636d33b42b1461010b5780636ddc33b814610134578063715018a61461013e575b600080fd5b3480156100ad57600080fd5b506100c860048036038101906100c39190610e37565b610255565b6040516100d793929190610ec7565b60405180910390f35b3480156100ec57600080fd5b506100f56102bc565b6040516101029190610efe565b60405180910390f35b34801561011757600080fd5b50610132600480360381019061012d9190610f19565b6102c4565b005b61013c610384565b005b34801561014a57600080fd5b506101536107bf565b005b34801561016157600080fd5b5061016a610847565b6040516101779190610f46565b60405180910390f35b34801561018c57600080fd5b50610195610871565b6040516101a29190610f46565b60405180910390f35b3480156101b757600080fd5b506101c061089a565b6040516101cd9190610efe565b60405180910390f35b3480156101e257600080fd5b506101eb6108a7565b6040516101f89190610efe565b60405180910390f35b34801561020d57600080fd5b506102166108b4565b6040516102239190611070565b60405180910390f35b34801561023857600080fd5b50610253600480360381019061024e91906110be565b610990565b005b6006602052816000526040600020818154811061027157600080fd5b9060005260206000209060030201600091509150508060000160009054906101000a900473ffffffffffffffffffffffffffffffffffffffff16908060010154908060020154905083565b600047905090565b6102cc610a88565b73ffffffffffffffffffffffffffffffffffffffff166102ea610871565b73ffffffffffffffffffffffffffffffffffffffff1614610340576040517f08c379a000000000000000000000000000000000000000000000000000000000815260040161033790611148565b60405180910390fd5b806003600001819055507f38baed51d1ab969478fd433835d36d018ec03efb050d21e2ef82b1f7ab9cdc5a816040516103799190610efe565b60405180910390a150565b6000349050600073ffffffffffffffffffffffffffffffffffffffff163373ffffffffffffffffffffffffffffffffffffffff1614156103f9576040517f08c379a00000000000000000000000000000000000000000000000000000000081526004016103f0906111b4565b60405180910390fd5b6104126002600360000154610a9090919063ffffffff16565b811115610454576040517f08c379a000000000000000000000000000000000000000000000000000000000815260040161044b90611220565b60405180910390fd5b61046d6014600360000154610a9090919063ffffffff16565b8110156104af576040517f08c379a00000000000000000000000000000000000000000000000000000000081526004016104a69061128c565b60405180910390fd5b600360000154600360010154106104fb576040517f08c379a00000000000000000000000000000000000000000000000000000000081526004016104f2906112f8565b60405180910390fd5b6000600660006002548152602001908152602001600020905060006064905060006105466003600001546105388685610aa690919063ffffffff16565b610a9090919063ffffffff16565b9050836003600101600082825461055d9190611347565b9250508190555080600360020160008282546105799190611347565b925050819055508260405180606001604052803373ffffffffffffffffffffffffffffffffffffffff168152602001868152602001600360020154815250908060018154018082558091505060019003906000526020600020906003020160009091909190915060008201518160000160006101000a81548173ffffffffffffffffffffffffffffffffffffffff021916908373ffffffffffffffffffffffffffffffffffffffff160217905550602082015181600101556040820151816002015550507f21fea5cce8da489d4f2432ae8b473be0832b677998e455bfffb7ac0d36b191c633858360405161067093929190610ec7565b60405180910390a1600360000154600360010154106107b9576000610693610abc565b905060008173ffffffffffffffffffffffffffffffffffffffff16476040516106bb906113ce565b60006040518083038185875af1925050503d80600081146106f8576040519150601f19603f3d011682016040523d82523d6000602084013e6106fd565b606091505b505090507f673bcd6c58cd7644fb2accd7bd1fba66891018d5fce4c1053bfe4bf5ef706f1d8260036001015460025460405161073b93929190611442565b60405180910390a16107886040518060400160405280601581526020017f50756e74657220257320776f6e2025732045746821000000000000000000000081525083600360010154610b67565b60006003600101819055506000600360020181905550600260008154809291906107b190611479565b919050555050505b50505050565b6107c7610a88565b73ffffffffffffffffffffffffffffffffffffffff166107e5610871565b73ffffffffffffffffffffffffffffffffffffffff161461083b576040517f08c379a000000000000000000000000000000000000000000000000000000000815260040161083290611148565b60405180910390fd5b6108456000610c06565b565b6000600160009054906101000a900473ffffffffffffffffffffffffffffffffffffffff16905090565b60008060009054906101000a900473ffffffffffffffffffffffffffffffffffffffff16905090565b6000600360010154905090565b6000600360000154905090565b6060600660006002548152602001908152602001600020805480602002602001604051908101604052809291908181526020016000905b8282101561098757838290600052602060002090600302016040518060600160405290816000820160009054906101000a900473ffffffffffffffffffffffffffffffffffffffff1673ffffffffffffffffffffffffffffffffffffffff1673ffffffffffffffffffffffffffffffffffffffff16815260200160018201548152602001600282015481525050815260200190600101906108eb565b50505050905090565b610998610a88565b73ffffffffffffffffffffffffffffffffffffffff166109b6610871565b73ffffffffffffffffffffffffffffffffffffffff1614610a0c576040517f08c379a0000000000000000000000000000000000000000000000000000000008152600401610a0390611148565b60405180910390fd5b600073ffffffffffffffffffffffffffffffffffffffff168173ffffffffffffffffffffffffffffffffffffffff161415610a7c576040517f08c379a0000000000000000000000000000000000000000000000000000000008152600401610a7390611534565b60405180910390fd5b610a8581610c06565b50565b600033905090565b60008183610a9e9190611583565b905092915050565b60008183610ab491906115b4565b905092915050565b60008060036002015490506000610ad282610cca565b905060006006600060025481526020019081526020016000208054905090506000610afd8383610d1f565b905060006006600060025481526020019081526020016000208281548110610b2857610b2761160e565b5b906000526020600020906003020160000160009054906101000a900473ffffffffffffffffffffffffffffffffffffffff169050809550505050505090565b610c01838383604051602401610b7f939291906116c5565b6040516020818303038152906040527f07c81217000000000000000000000000000000000000000000000000000000007bffffffffffffffffffffffffffffffffffffffffffffffffffffffff19166020820180517bffffffffffffffffffffffffffffffffffffffffffffffffffffffff8381831617835250505050610dd3565b505050565b60008060009054906101000a900473ffffffffffffffffffffffffffffffffffffffff169050816000806101000a81548173ffffffffffffffffffffffffffffffffffffffff021916908373ffffffffffffffffffffffffffffffffffffffff1602179055508173ffffffffffffffffffffffffffffffffffffffff168173ffffffffffffffffffffffffffffffffffffffff167f8be0079c531659141344cd1fd0a4f28419497f9722a3daafe3b4186f6b6457e060405160405180910390a35050565b6000806001834442600254604051602001610ce793929190611724565b6040516020818303038152906040528051906020012060001c610d0a9190611761565b610d149190611347565b905080915050919050565b600080600090505b82811015610d8a576006600060025481526020019081526020016000208181548110610d5657610d5561160e565b5b9060005260206000209060030201600201548411610d775780915050610dcd565b8080610d8290611479565b915050610d27565b506000610dcc576040517f08c379a0000000000000000000000000000000000000000000000000000000008152600401610dc3906117de565b60405180910390fd5b5b92915050565b60008151905060006a636f6e736f6c652e6c6f679050602083016000808483855afa5050505050565b600080fd5b6000819050919050565b610e1481610e01565b8114610e1f57600080fd5b50565b600081359050610e3181610e0b565b92915050565b60008060408385031215610e4e57610e4d610dfc565b5b6000610e5c85828601610e22565b9250506020610e6d85828601610e22565b9150509250929050565b600073ffffffffffffffffffffffffffffffffffffffff82169050919050565b6000610ea282610e77565b9050919050565b610eb281610e97565b82525050565b610ec181610e01565b82525050565b6000606082019050610edc6000830186610ea9565b610ee96020830185610eb8565b610ef66040830184610eb8565b949350505050565b6000602082019050610f136000830184610eb8565b92915050565b600060208284031215610f2f57610f2e610dfc565b5b6000610f3d84828501610e22565b91505092915050565b6000602082019050610f5b6000830184610ea9565b92915050565b600081519050919050565b600082825260208201905092915050565b6000819050602082019050919050565b610f9681610e97565b82525050565b610fa581610e01565b82525050565b606082016000820151610fc16000850182610f8d565b506020820151610fd46020850182610f9c565b506040820151610fe76040850182610f9c565b50505050565b6000610ff98383610fab565b60608301905092915050565b6000602082019050919050565b600061101d82610f61565b6110278185610f6c565b935061103283610f7d565b8060005b8381101561106357815161104a8882610fed565b975061105583611005565b925050600181019050611036565b5085935050505092915050565b6000602082019050818103600083015261108a8184611012565b905092915050565b61109b81610e97565b81146110a657600080fd5b50565b6000813590506110b881611092565b92915050565b6000602082840312156110d4576110d3610dfc565b5b60006110e2848285016110a9565b91505092915050565b600082825260208201905092915050565b7f4f776e61626c653a2063616c6c6572206973206e6f7420746865206f776e6572600082015250565b60006111326020836110eb565b915061113d826110fc565b602082019050919050565b6000602082019050818103600083015261116181611125565b9050919050565b7f42657474696e672066726f6d20746865207a65726f2061646472657373000000600082015250565b600061119e601d836110eb565b91506111a982611168565b602082019050919050565b600060208201905081810360008301526111cd81611191565b9050919050565b7f42657420746f6f206d7563680000000000000000000000000000000000000000600082015250565b600061120a600c836110eb565b9150611215826111d4565b602082019050919050565b60006020820190508181036000830152611239816111fd565b9050919050565b7f496e73756666696369656e742062657400000000000000000000000000000000600082015250565b60006112766010836110eb565b915061128182611240565b602082019050919050565b600060208201905081810360008301526112a581611269565b9050919050565b7f4c617374206c6f747465727920636f6d706c6574696e67000000000000000000600082015250565b60006112e26017836110eb565b91506112ed826112ac565b602082019050919050565b60006020820190508181036000830152611311816112d5565b9050919050565b7f4e487b7100000000000000000000000000000000000000000000000000000000600052601160045260246000fd5b600061135282610e01565b915061135d83610e01565b9250827fffffffffffffffffffffffffffffffffffffffffffffffffffffffffffffffff0382111561139257611391611318565b5b828201905092915050565b600081905092915050565b50565b60006113b860008361139d565b91506113c3826113a8565b600082019050919050565b60006113d9826113ab565b9150819050919050565b6000819050919050565b60006114086114036113fe84610e77565b6113e3565b610e77565b9050919050565b600061141a826113ed565b9050919050565b600061142c8261140f565b9050919050565b61143c81611421565b82525050565b60006060820190506114576000830186611433565b6114646020830185610eb8565b6114716040830184610eb8565b949350505050565b600061148482610e01565b91507fffffffffffffffffffffffffffffffffffffffffffffffffffffffffffffffff8214156114b7576114b6611318565b5b600182019050919050565b7f4f776e61626c653a206e6577206f776e657220697320746865207a65726f206160008201527f6464726573730000000000000000000000000000000000000000000000000000602082015250565b600061151e6026836110eb565b9150611529826114c2565b604082019050919050565b6000602082019050818103600083015261154d81611511565b9050919050565b7f4e487b7100000000000000000000000000000000000000000000000000000000600052601260045260246000fd5b600061158e82610e01565b915061159983610e01565b9250826115a9576115a8611554565b5b828204905092915050565b60006115bf82610e01565b91506115ca83610e01565b9250817fffffffffffffffffffffffffffffffffffffffffffffffffffffffffffffffff048311821515161561160357611602611318565b5b828202905092915050565b7f4e487b7100000000000000000000000000000000000000000000000000000000600052603260045260246000fd5b600081519050919050565b60005b8381101561166657808201518184015260208101905061164b565b83811115611675576000848401525b50505050565b6000601f19601f8301169050919050565b60006116978261163d565b6116a181856110eb565b93506116b1818560208601611648565b6116ba8161167b565b840191505092915050565b600060608201905081810360008301526116df818661168c565b90506116ee6020830185610ea9565b6116fb6040830184610eb8565b949350505050565b6000819050919050565b61171e61171982610e01565b611703565b82525050565b6000611730828661170d565b602082019150611740828561170d565b602082019150611750828461170d565b602082019150819050949350505050565b600061176c82610e01565b915061177783610e01565b92508261178757611786611554565b5b828206905092915050565b7f4c6f747465727920636f6e7472616374206c6f676963206661696c6564000000600082015250565b60006117c8601d836110eb565b91506117d382611792565b602082019050919050565b600060208201905081810360008301526117f7816117bb565b905091905056fea2646970667358221220306fa990c1c5e2d13f0dd3e60f547a2a241136b87320e3eb3c65314639008bfb64736f6c63430008090033",
  "linkReferences": {},
  "deployedLinkReferences": {}
}